:020000040800F2
:1000000038050020D5010008D9010008DB010008EF
:10001000DD010008DF010008E10100080000000028
:10002000000000000000000000000000E3010008E4
:10003000E501000800000000E7010008E9010008F0
:10004000EB010008EB010008EB010008EB010008E0
:10005000EB010008EB010008EB010008EB010008D0
:10006000EB010008EB010008EB010008EB010008C0
:10007000EB010008EB010008EB010008EB010008B0
:10008000EB010008EB010008EB010008EB010008A0
:10009000EB010008EB010008EB010008EB01000890
:1000A000EB010008EB010008EB010008EB01000880
:1000B000EB010008EB010008EB010008EB01000870
:1000C000EB010008EB010008EB010008EB01000860
:1000D000EB01000881040008EB010008EB010008B7
:1000E000EB010008EB010008EB010008EB01000840
:1000F000EB010008EB010008EB010008EB01000830
:10010000EB010008EB010008EB010008EB0100081F
:10011000EB010008EB010008EB010008EB0100080F
:10012000EB010008EB010008EB010008EB010008FF
:1001300000F002F800F03FF80AA090E8000C8244BA
:100140008344AAF10107DA4501D100F034F8AFF297
:10015000090EBAE80F0013F0010F18BFFB1A43F0A5
:1001600001031847FC0700001C080000103A24BFD8
:1001700078C878C1FAD8520724BF30C830C144BF0C
:1001800004680C607047000000230024002500264E
:10019000103A28BF78C1FBD8520728BF30C148BFEA
:1001A0000B607047642900F07180002070471FB514
:1001B0001FBD10B510BD00F031F91146FFF7F7FF74
:1001C00000F0F4F900F04FF903B4FFF7F2FF03BCBD
:1001D00000F098F908480047FEE7FEE7FEE7FEE773
:1001E000FEE7FEE7FEE7FEE7FEE7FEE70348044919
:1001F000024A044B7047000031010008380100201A
:100200003805002038010020704700000FB4044971
:1002100010B503AA029800F0D3F810BC5DF814FBE7
:10022000040000202DE9F0410E4604460020206223
:100230002046E168884730B3252805D0D4E901215C
:100240009047206A401CF2E7E16820460027884773
:10025000050018D0A5F14100192802D820354FF427
:1002600000673246294620462760FFF79BFF40B1D2
:10027000012804D0F61D26F007060836D8E7361DFB
:10028000D6E72846DAE7206ABDE8F0812DE9F0419B
:100290000646002410687529314616A510D0AFF324
:1002A0000080002802DA404213A507E031688A077F
:1002B00001D512A502E0490704D511A5012401E0EA
:1002C000AFF3008000210A2206F1240709E0B0FB09
:1002D000F2FCB0FBF2F302FB1C00303078541846FD
:1002E000491C0028F3D123462A463046BDE8F04198
:1002F00000F00CB8000000002D0000002B000000F2
:100300002000000070477047704770472DE9F047A4
:100310000D4699469246044600F124080168880675
:1003200004D5E06921F01001216000E00120A8421D
:1003300001DD471B00E00027A1697A1902EB0900E3
:10034000081AA0612078C00602D42046AFF30080CE
:10035000002608E0D4E901211AF806009047206A37
:10036000401C761C20624E45F4DB2078C0060AD57E
:100370002046AFF3008006E0D4E901213020904709
:10038000206A401C2062381EA7F10107F4DC07E058
:10039000D4E9012118F805009047206A401C20622A
:1003A000281EA5F10105F3DC2046AFF3008020787C
:1003B000000602D50220BDE8F0870120FBE700001F
:1003C000074B70B50D467B4400F011F804462846F3
:1003D00000F020F810B14FF0FF3070BD204670BD26
:1003E000C701000001694A1C02610878704700B526
:1003F0008FB0CDE901310021059105497944CDE95E
:10040000031011466846FFF70DFF0FB000BD000056
:10041000E5FFFFFF007B00F080007047754600F0AD
:100420002BF8AE4605006946534620F00700854686
:1004300018B020B5FFF7DAFEBDE820404FF0000607
:100440004FF000074FF000084FF0000B21F00701BC
:10045000AC46ACE8C009ACE8C009ACE8C009ACE8FF
:10046000C0098D46704710B50446AFF300802046A2
:10047000BDE81040FFF7A8BE00487047D400002038
:100480001D49096801F0200111B31B49091D0968C4
:10049000C8B21A49098801F40041C9B91749098845
:1004A00001F4804161B10A2803D00021134A118070
:1004B00020E01249098841F40041104A118019E0F6
:1004C0000D2806D10D49098841F480410B4A11805D
:1004D00010E00A490988C1F30D01094A505407493F
:1004E0000988491C054A118011460988C72901DD80
:1004F00000211180704700000038014008000020F2
:100500000C00002000BF70474FF0E021096941F066
:1005100004014FF0E02211610549086011460969A4
:1005200041F0010111616FF07041516170470000AD
:100530000000002010B504464FF47A7104FB01F06E
:1005400000F002F810BD000070B5034600224FF025
:10055000E02675690D4E366803FB06F44FF0E02681
:10056000B16910E04FF0E026B06988420BD08842B4
:1005700002D20E1A324402E02E1A0E4432440146D0
:10058000A24200D300E0EDE700BF70BD00000020F4
:1005900000BF054A126802F04002002AF9D0C2B238
:1005A000014B1B1D1A6070470038014000240920D0
:1005B00000F03CF94820FFF7A7FF4FF4E131482055
:1005C00000F06CF909E0214604A0FFF71FFE4FF48C
:1005D000FA70FFF7AFFF601CC4B2F4E7743A256409
:1005E0000D0A000010B5024600210020264B1B68B2
:1005F00043F48033244C23600AE000BF224B1B6885
:1006000003F400331BB1B1F5004F00D904E0491CDD
:100610004FF6F0739942F0D300BF4FF6F073994252
:1006200001D301202FE04FF48063174C6360921ECA
:1006300023465B6843EA8243636023465B6843F476
:10064000803363601023114C236023461B6843F002
:10065000020323600C4B1B6843F080730A4C236039
:1006600000BF094B1B685B0E002BFAD0064B5B6882
:1006700043F00203044C636000BF034B5B68C3F3A9
:100680008103022BF9D110BD00100240002002406E
:100690002DE9F04F0E461D46DDE909C40021002773
:1006A0008846002300BF64E04FF0010909FA01F712
:1006B00006EA0708B8455BD10023012A01D0022AC7
:1006C0000AD10CF0030305F0010943EA8903A2F102
:1006D000010943EAC90318E0BAB90CB9042314E0CC
:1006E0000823D0F80C904FF0010A0AFA01FA29EA1F
:1006F0000A09C0F80C90D0F80CA004F0010909FA1E
:1007000001F94AEA090AC0F80CA0072916D8D0F85E
:1007100000904FEA810B4FF00F0A0AFA0BFA29EA10
:100720000A09C0F80090D0F800904FEA810A03FA55
:100730000AFA49EA0A09C0F8009019E0D0F80490D2
:10074000A1F1080A4FEA8A0B4FF00F0A0AFA0BFAD6
:1007500029EA0A09C0F80490D0F80490A1F1080A27
:100760004FEA8A0A03FA0AFA49EA0A09C0F8049029
:10077000491C102998D3BDE8F08F00002DE9F04105
:100780000746884614461D46284600F033F8C5F152
:10079000040007FA00F60F20284100EA080006438B
:1007A00006F00F06E21704EBD2625211920002F13A
:1007B000E022D2F800212146E31704EBD3635B115A
:1007C000A4EB431C012303FA0CF31A432046E3175E
:1007D00004EBD3635B119B0003F1E023C3F800211A
:1007E0000348005D40EA061001490855BDE8F08164
:1007F00000E400E00146072323EA01021202054B50
:1008000018684FF6FF031840034B18431043014B81
:10081000186070470CED00E00000FA054A0A520229
:100820000243014B1A60704708ED00E010B5044622
:10083000002017490861C8601420486100208861C1
:10084000C8610846006840F001000860084640683A
:10085000104908400E494860084600680E490840A3
:100860000B4908600846006820F4802008600846AC
:10087000406820F4FE0048604FF41F008860204666
:10088000FFF7B0FE00214FF00060FFF7C7FF10BD7B
:10089000001002400000FFF8FFFFF6FE7CB50646A0
:1008A0000C4600BF2A48806940F00400284988614E
:1008B00000BF00BF0846806940F00400886100BFA7
:1008C00000BF0846806940F48040886100BF012075
:1008D000032100230222CDE9001041021D48FFF749
:1008E000D7FE0120032100231A46CDE90010810222
:1008F0001848FFF7CDFE1848704300EB5400B0FBDA
:10090000F4F51648056000201449091D08600846E2
:10091000006808600846006840F008000860084663
:10092000006840F0040008600846006840F02000BD
:1009300008600223252203210846FFF71FFF07480E
:10094000001D006840F400500449091D08607CBD8A
:10095000001002400008014040420F0008380140EA
:1009600080090008000000200C0000006C01000855
:100970008C0900080C0000202C05000088010008EC
:0C0980000000000000000000000000006B
:0400000508000131BD
:00000001FF
